{
  "contractName": "Library",
  "abi": [
    {
      "inputs": [],
      "payable": false,
      "stateMutability": "nonpayable",
      "type": "constructor"
    },
    {
      "anonymous": false,
      "inputs": [
        {
          "indexed": false,
          "internalType": "uint256",
          "name": "book_Id",
          "type": "uint256"
        },
        {
          "indexed": false,
          "internalType": "string",
          "name": "book_Hash",
          "type": "string"
        },
        {
          "indexed": false,
          "internalType": "uint256",
          "name": "book_Size",
          "type": "uint256"
        },
        {
          "indexed": false,
          "internalType": "string",
          "name": "book_Name",
          "type": "string"
        },
        {
          "indexed": false,
          "internalType": "string",
          "name": "book_Description",
          "type": "string"
        },
        {
          "indexed": false,
          "internalType": "string",
          "name": "author",
          "type": "string"
        },
        {
          "indexed": false,
          "internalType": "uint256",
          "name": "uploadTime",
          "type": "uint256"
        },
        {
          "indexed": false,
          "internalType": "address",
          "name": "uploader",
          "type": "address"
        }
      ],
      "name": "BookUploaded",
      "type": "event"
    },
    {
      "anonymous": false,
      "inputs": [
        {
          "indexed": false,
          "internalType": "uint256",
          "name": "note_Id",
          "type": "uint256"
        },
        {
          "indexed": false,
          "internalType": "string",
          "name": "note_Hash",
          "type": "string"
        },
        {
          "indexed": false,
          "internalType": "uint256",
          "name": "note_Size",
          "type": "uint256"
        },
        {
          "indexed": false,
          "internalType": "string",
          "name": "stream",
          "type": "string"
        },
        {
          "indexed": false,
          "internalType": "string",
          "name": "subjectcode",
          "type": "string"
        },
        {
          "indexed": false,
          "internalType": "string",
          "name": "teacher",
          "type": "string"
        },
        {
          "indexed": false,
          "internalType": "string",
          "name": "date",
          "type": "string"
        },
        {
          "indexed": false,
          "internalType": "uint256",
          "name": "uploadTime",
          "type": "uint256"
        },
        {
          "indexed": false,
          "internalType": "address",
          "name": "uploader",
          "type": "address"
        }
      ],
      "name": "NoteUploaded",
      "type": "event"
    },
    {
      "constant": true,
      "inputs": [],
      "name": "BookCount",
      "outputs": [
        {
          "internalType": "uint256",
          "name": "",
          "type": "uint256"
        }
      ],
      "payable": false,
      "stateMutability": "view",
      "type": "function"
    },
    {
      "constant": true,
      "inputs": [],
      "name": "NoteCount",
      "outputs": [
        {
          "internalType": "uint256",
          "name": "",
          "type": "uint256"
        }
      ],
      "payable": false,
      "stateMutability": "view",
      "type": "function"
    },
    {
      "constant": true,
      "inputs": [],
      "name": "admin",
      "outputs": [
        {
          "internalType": "address",
          "name": "",
          "type": "address"
        }
      ],
      "payable": false,
      "stateMutability": "view",
      "type": "function"
    },
    {
      "constant": true,
      "inputs": [
        {
          "internalType": "uint256",
          "name": "",
          "type": "uint256"
        }
      ],
      "name": "books",
      "outputs": [
        {
          "internalType": "uint256",
          "name": "book_Id",
          "type": "uint256"
        },
        {
          "internalType": "string",
          "name": "book_Hash",
          "type": "string"
        },
        {
          "internalType": "uint256",
          "name": "book_Size",
          "type": "uint256"
        },
        {
          "internalType": "string",
          "name": "book_Name",
          "type": "string"
        },
        {
          "internalType": "string",
          "name": "book_Description",
          "type": "string"
        },
        {
          "internalType": "string",
          "name": "author",
          "type": "string"
        },
        {
          "internalType": "uint256",
          "name": "uploadTime",
          "type": "uint256"
        },
        {
          "internalType": "address",
          "name": "uploader",
          "type": "address"
        }
      ],
      "payable": false,
      "stateMutability": "view",
      "type": "function"
    },
    {
      "constant": true,
      "inputs": [],
      "name": "librarian",
      "outputs": [
        {
          "internalType": "address",
          "name": "",
          "type": "address"
        }
      ],
      "payable": false,
      "stateMutability": "view",
      "type": "function"
    },
    {
      "constant": true,
      "inputs": [
        {
          "internalType": "uint256",
          "name": "",
          "type": "uint256"
        }
      ],
      "name": "notes",
      "outputs": [
        {
          "internalType": "uint256",
          "name": "note_Id",
          "type": "uint256"
        },
        {
          "internalType": "string",
          "name": "note_Hash",
          "type": "string"
        },
        {
          "internalType": "uint256",
          "name": "note_Size",
          "type": "uint256"
        },
        {
          "internalType": "string",
          "name": "stream",
          "type": "string"
        },
        {
          "internalType": "string",
          "name": "subjectcode",
          "type": "string"
        },
        {
          "internalType": "string",
          "name": "teacher",
          "type": "string"
        },
        {
          "internalType": "string",
          "name": "date",
          "type": "string"
        },
        {
          "internalType": "uint256",
          "name": "uploadTime",
          "type": "uint256"
        },
        {
          "internalType": "address",
          "name": "uploader",
          "type": "address"
        },
        {
          "internalType": "uint256",
          "name": "reports",
          "type": "uint256"
        }
      ],
      "payable": false,
      "stateMutability": "view",
      "type": "function"
    },
    {
      "constant": true,
      "inputs": [
        {
          "internalType": "address",
          "name": "",
          "type": "address"
        },
        {
          "internalType": "uint256",
          "name": "",
          "type": "uint256"
        }
      ],
      "name": "reporters",
      "outputs": [
        {
          "internalType": "bool",
          "name": "reported",
          "type": "bool"
        }
      ],
      "payable": false,
      "stateMutability": "view",
      "type": "function"
    },
    {
      "constant": false,
      "inputs": [
        {
          "internalType": "address",
          "name": "_librarian",
          "type": "address"
        }
      ],
      "name": "changelibrarian",
      "outputs": [],
      "payable": false,
      "stateMutability": "nonpayable",
      "type": "function"
    },
    {
      "constant": false,
      "inputs": [
        {
          "internalType": "uint256",
          "name": "index",
          "type": "uint256"
        }
      ],
      "name": "deletebook",
      "outputs": [],
      "payable": false,
      "stateMutability": "nonpayable",
      "type": "function"
    },
    {
      "constant": false,
      "inputs": [
        {
          "internalType": "string",
          "name": "_book_Hash",
          "type": "string"
        },
        {
          "internalType": "uint256",
          "name": "_book_Size",
          "type": "uint256"
        },
        {
          "internalType": "string",
          "name": "_book_Name",
          "type": "string"
        },
        {
          "internalType": "string",
          "name": "_book_Description",
          "type": "string"
        },
        {
          "internalType": "string",
          "name": "_author",
          "type": "string"
        }
      ],
      "name": "uploadBook",
      "outputs": [],
      "payable": false,
      "stateMutability": "nonpayable",
      "type": "function"
    },
    {
      "constant": false,
      "inputs": [
        {
          "internalType": "string",
          "name": "_note_Hash",
          "type": "string"
        },
        {
          "internalType": "uint256",
          "name": "_note_Size",
          "type": "uint256"
        },
        {
          "internalType": "string",
          "name": "_stream",
          "type": "string"
        },
        {
          "internalType": "string",
          "name": "_subjectcode",
          "type": "string"
        },
        {
          "internalType": "string",
          "name": "_teacher",
          "type": "string"
        },
        {
          "internalType": "string",
          "name": "_date",
          "type": "string"
        }
      ],
      "name": "uploadNote",
      "outputs": [],
      "payable": false,
      "stateMutability": "nonpayable",
      "type": "function"
    },
    {
      "constant": false,
      "inputs": [
        {
          "internalType": "uint256",
          "name": "index",
          "type": "uint256"
        }
      ],
      "name": "deletenote",
      "outputs": [],
      "payable": false,
      "stateMutability": "nonpayable",
      "type": "function"
    },
    {
      "constant": false,
      "inputs": [
        {
          "internalType": "uint256",
          "name": "index",
          "type": "uint256"
        }
      ],
      "name": "reportnote",
      "outputs": [],
      "payable": false,
      "stateMutability": "nonpayable",
      "type": "function"
    }
  ],
  "bytecode": "0x60806040526000600255600060035534801561001a57600080fd5b50336000806101000a81548173ffffffffffffffffffffffffffffffffffffffff021916908373ffffffffffffffffffffffffffffffffffffffff16021790555033600160006101000a81548173ffffffffffffffffffffffffffffffffffffffff021916908373ffffffffffffffffffffffffffffffffffffffff1602179055506136a4806100ab6000396000f3fe608060405234801561001057600080fd5b50600436106100cf5760003560e01c806363b64a6b1161008c578063a997cf4511610066578063a997cf4514610749578063e9cc89f4146109d3578063efea9ffe14610cf4578063f851a44014610d12576100cf565b806363b64a6b1461049e57806368744046146104cc578063a437d45f146106ff576100cf565b80630709d39c146100d45780630bdad6031461011857806329c37f911461014657806336e0862d14610164578063586b11ac146101ca57806361c3a7e6146101f8575b600080fd5b610116600480360360208110156100ea57600080fd5b81019080803573ffffffffffffffffffffffffffffffffffffffff169060200190929190505050610d5c565b005b6101446004803603602081101561012e57600080fd5b8101908080359060200190929190505050610e9c565b005b61014e61197f565b6040518082815260200191505060405180910390f35b6101b06004803603604081101561017a57600080fd5b81019080803573ffffffffffffffffffffffffffffffffffffffff16906020019092919080359060200190929190505050611985565b604051808215151515815260200191505060405180910390f35b6101f6600480360360208110156101e057600080fd5b81019080803590602001909291905050506119bd565b005b6102246004803603602081101561020e57600080fd5b8101908080359060200190929190505050611c82565b604051808b8152602001806020018a8152602001806020018060200180602001806020018981526020018873ffffffffffffffffffffffffffffffffffffffff1673ffffffffffffffffffffffffffffffffffffffff16815260200187815260200186810386528f818151815260200191508051906020019080838360005b838110156102be5780820151818401526020810190506102a3565b50505050905090810190601f1680156102eb5780820380516001836020036101000a031916815260200191505b5086810385528d818151815260200191508051906020019080838360005b83811015610324578082015181840152602081019050610309565b50505050905090810190601f1680156103515780820380516001836020036101000a031916815260200191505b5086810384528c818151815260200191508051906020019080838360005b8381101561038a57808201518184015260208101905061036f565b50505050905090810190601f1680156103b75780820380516001836020036101000a031916815260200191505b5086810383528b818151815260200191508051906020019080838360005b838110156103f05780820151818401526020810190506103d5565b50505050905090810190601f16801561041d5780820380516001836020036101000a031916815260200191505b5086810382528a818151815260200191508051906020019080838360005b8381101561045657808201518184015260208101905061043b565b50505050905090810190601f1680156104835780820380516001836020036101000a031916815260200191505b509f5050505050505050505050505050505060405180910390f35b6104ca600480360360208110156104b457600080fd5b8101908080359060200190929190505050611fee565b005b6104f8600480360360208110156104e257600080fd5b8101908080359060200190929190505050612910565b60405180898152602001806020018881526020018060200180602001806020018781526020018673ffffffffffffffffffffffffffffffffffffffff1673ffffffffffffffffffffffffffffffffffffffff16815260200185810385528c818151815260200191508051906020019080838360005b8381101561058857808201518184015260208101905061056d565b50505050905090810190601f1680156105b55780820380516001836020036101000a031916815260200191505b5085810384528a818151815260200191508051906020019080838360005b838110156105ee5780820151818401526020810190506105d3565b50505050905090810190601f16801561061b5780820380516001836020036101000a031916815260200191505b50858103835289818151815260200191508051906020019080838360005b83811015610654578082015181840152602081019050610639565b50505050905090810190601f1680156106815780820380516001836020036101000a031916815260200191505b50858103825288818151815260200191508051906020019080838360005b838110156106ba57808201518184015260208101905061069f565b50505050905090810190601f1680156106e75780820380516001836020036101000a031916815260200191505b509c5050505050505050505050505060405180910390f35b610707612bd8565b604051808273ffffffffffffffffffffffffffffffffffffffff1673ffffffffffffffffffffffffffffffffffffffff16815260200191505060405180910390f35b6109d1600480360360a081101561075f57600080fd5b810190808035906020019064010000000081111561077c57600080fd5b82018360208201111561078e57600080fd5b803590602001918460018302840111640100000000831117156107b057600080fd5b91908080601f016020809104026020016040519081016040528093929190818152602001838380828437600081840152601f19601f820116905080830192505050505050509192919290803590602001909291908035906020019064010000000081111561081d57600080fd5b82018360208201111561082f57600080fd5b8035906020019184600183028401116401000000008311171561085157600080fd5b91908080601f016020809104026020016040519081016040528093929190818152602001838380828437600081840152601f19601f820116905080830192505050505050509192919290803590602001906401000000008111156108b457600080fd5b8201836020820111156108c657600080fd5b803590602001918460018302840111640100000000831117156108e857600080fd5b91908080601f016020809104026020016040519081016040528093929190818152602001838380828437600081840152601f19601f8201169050808301925050505050505091929192908035906020019064010000000081111561094b57600080fd5b82018360208201111561095d57600080fd5b8035906020019184600183028401116401000000008311171561097f57600080fd5b91908080601f016020809104026020016040519081016040528093929190818152602001838380828437600081840152601f19601f820116905080830192505050505050509192919290505050612bfe565b005b610cf2600480360360c08110156109e957600080fd5b8101908080359060200190640100000000811115610a0657600080fd5b820183602082011115610a1857600080fd5b80359060200191846001830284011164010000000083111715610a3a57600080fd5b91908080601f016020809104026020016040519081016040528093929190818152602001838380828437600081840152601f19601f8201169050808301925050505050505091929192908035906020019092919080359060200190640100000000811115610aa757600080fd5b820183602082011115610ab957600080fd5b80359060200191846001830284011164010000000083111715610adb57600080fd5b91908080601f016020809104026020016040519081016040528093929190818152602001838380828437600081840152601f19601f82011690508083019250505050505050919291929080359060200190640100000000811115610b3e57600080fd5b820183602082011115610b5057600080fd5b80359060200191846001830284011164010000000083111715610b7257600080fd5b91908080601f016020809104026020016040519081016040528093929190818152602001838380828437600081840152601f19601f82011690508083019250505050505050919291929080359060200190640100000000811115610bd557600080fd5b820183602082011115610be757600080fd5b80359060200191846001830284011164010000000083111715610c0957600080fd5b91908080601f016020809104026020016040519081016040528093929190818152602001838380828437600081840152601f19601f82011690508083019250505050505050919291929080359060200190640100000000811115610c6c57600080fd5b820183602082011115610c7e57600080fd5b80359060200191846001830284011164010000000083111715610ca057600080fd5b91908080601f016020809104026020016040519081016040528093929190818152602001838380828437600081840152601f19601f8201169050808301925050505050505091929192905050506130cd565b005b610cfc61357d565b6040518082815260200191505060405180910390f35b610d1a613583565b604051808273ffffffffffffffffffffffffffffffffffffffff1673ffffffffffffffffffffffffffffffffffffffff16815260200191505060405180910390f35b6000809054906101000a900473ffffffffffffffffffffffffffffffffffffffff1673ffffffffffffffffffffffffffffffffffffffff163373ffffffffffffffffffffffffffffffffffffffff1614610e1e576040517f08c379a000000000000000000000000000000000000000000000000000000000815260040180806020018281038252601a8152602001807f4f6e6c792041646d696e2063616e20616363657373207468697300000000000081525060200191505060405180910390fd5b600073ffffffffffffffffffffffffffffffffffffffff163373ffffffffffffffffffffffffffffffffffffffff161415610e5857600080fd5b80600160006101000a81548173ffffffffffffffffffffffffffffffffffffffff021916908373ffffffffffffffffffffffffffffffffffffffff16021790555050565b806005600082815260200190815260200160002060080160009054906101000a900473ffffffffffffffffffffffffffffffffffffffff1673ffffffffffffffffffffffffffffffffffffffff163373ffffffffffffffffffffffffffffffffffffffff161480610f5a5750600160009054906101000a900473ffffffffffffffffffffffffffffffffffffffff1673ffffffffffffffffffffffffffffffffffffffff163373ffffffffffffffffffffffffffffffffffffffff16145b610faf576040517f08c379a000000000000000000000000000000000000000000000000000000000815260040180806020018281038252602281526020018061364e6022913960400191505060405180910390fd5b600073ffffffffffffffffffffffffffffffffffffffff163373ffffffffffffffffffffffffffffffffffffffff161415610fe957600080fd5b6000600354118015610ffd57506003548211155b61106f576040517f08c379a00000000000000000000000000000000000000000000000000000000081526004018080602001828103825260118152602001807f556e61626c6520746f2044656c6574652100000000000000000000000000000081525060200191505060405180910390fd5b60035482146117a3576040518061014001604052808381526020016005600060035481526020019081526020016000206001018054600181600116156101000203166002900480601f0160208091040260200160405190810160405280929190818152602001828054600181600116156101000203166002900480156111365780601f1061110b57610100808354040283529160200191611136565b820191906000526020600020905b81548152906001019060200180831161111957829003601f168201915b505050505081526020016005600060035481526020019081526020016000206002015481526020016005600060035481526020019081526020016000206003018054600181600116156101000203166002900480601f01602080910402602001604051908101604052809291908181526020018280546001816001161561010002031660029004801561120a5780601f106111df5761010080835404028352916020019161120a565b820191906000526020600020905b8154815290600101906020018083116111ed57829003601f168201915b505050505081526020016005600060035481526020019081526020016000206004018054600181600116156101000203166002900480601f0160208091040260200160405190810160405280929190818152602001828054600181600116156101000203166002900480156112c05780601f10611295576101008083540402835291602001916112c0565b820191906000526020600020905b8154815290600101906020018083116112a357829003601f168201915b505050505081526020016005600060035481526020019081526020016000206005018054600181600116156101000203166002900480601f0160208091040260200160405190810160405280929190818152602001828054600181600116156101000203166002900480156113765780601f1061134b57610100808354040283529160200191611376565b820191906000526020600020905b81548152906001019060200180831161135957829003601f168201915b505050505081526020016005600060035481526020019081526020016000206006018054600181600116156101000203166002900480601f01602080910402602001604051908101604052809291908181526020018280546001816001161561010002031660029004801561142c5780601f106114015761010080835404028352916020019161142c565b820191906000526020600020905b81548152906001019060200180831161140f57829003601f168201915b5050505050815260200160056000600354815260200190815260200160002060070154815260200160056000600354815260200190815260200160002060080160009054906101000a900473ffffffffffffffffffffffffffffffffffffffff1673ffffffffffffffffffffffffffffffffffffffff1681526020016000815250600560008481526020019081526020016000206000820151816000015560208201518160010190805190602001906114e69291906135a8565b5060408201518160020155606082015181600301908051906020019061150d9291906135a8565b50608082015181600401908051906020019061152a9291906135a8565b5060a08201518160050190805190602001906115479291906135a8565b5060c08201518160060190805190602001906115649291906135a8565b5060e082015181600701556101008201518160080160006101000a81548173ffffffffffffffffffffffffffffffffffffffff021916908373ffffffffffffffffffffffffffffffffffffffff1602179055506101208201518160090155905050604051806101400160405280600081526020016040518060200160405280600081525081526020016000815260200160405180602001604052806000815250815260200160405180602001604052806000815250815260200160405180602001604052806000815250815260200160405180602001604052806000815250815260200160008152602001600073ffffffffffffffffffffffffffffffffffffffff16815260200160008152506005600060035481526020019081526020016000206000820151816000015560208201518160010190805190602001906116ac9291906135a8565b506040820151816002015560608201518160030190805190602001906116d39291906135a8565b5060808201518160040190805190602001906116f09291906135a8565b5060a082015181600501908051906020019061170d9291906135a8565b5060c082015181600601908051906020019061172a9291906135a8565b5060e082015181600701556101008201518160080160006101000a81548173ffffffffffffffffffffffffffffffffffffffff021916908373ffffffffffffffffffffffffffffffffffffffff16021790555061012082015181600901559050506003600081548092919060019003919050555061197b565b604051806101400160405280600081526020016040518060200160405280600081525081526020016000815260200160405180602001604052806000815250815260200160405180602001604052806000815250815260200160405180602001604052806000815250815260200160405180602001604052806000815250815260200160008152602001600073ffffffffffffffffffffffffffffffffffffffff1681526020016000815250600560008481526020019081526020016000206000820151816000015560208201518160010190805190602001906118889291906135a8565b506040820151816002015560608201518160030190805190602001906118af9291906135a8565b5060808201518160040190805190602001906118cc9291906135a8565b5060a08201518160050190805190602001906118e99291906135a8565b5060c08201518160060190805190602001906119069291906135a8565b5060e082015181600701556101008201518160080160006101000a81548173ffffffffffffffffffffffffffffffffffffffff021916908373ffffffffffffffffffffffffffffffffffffffff1602179055506101208201518160090155905050600360008154809291906001900391905055505b5050565b60025481565b6006602052816000526040600020602052806000526040600020600091509150508060000160009054906101000a900460ff16905081565b806005600082815260200190815260200160002060080160009054906101000a900473ffffffffffffffffffffffffffffffffffffffff1673ffffffffffffffffffffffffffffffffffffffff163373ffffffffffffffffffffffffffffffffffffffff161415611a96576040517f08c379a000000000000000000000000000000000000000000000000000000000815260040180806020018281038252601b8152602001807f55706c6f616465722063616e2774207265706f7274206e6f746573000000000081525060200191505060405180910390fd5b600073ffffffffffffffffffffffffffffffffffffffff163373ffffffffffffffffffffffffffffffffffffffff161415611ad057600080fd5b60006005600084815260200190815260200160002060090154905060001515600660003373ffffffffffffffffffffffffffffffffffffffff1673ffffffffffffffffffffffffffffffffffffffff168152602001908152602001600020600085815260200190815260200160002060000160009054906101000a900460ff1615151415611bec5780806001019150508060056000858152602001908152602001600020600901819055506001600660003373ffffffffffffffffffffffffffffffffffffffff1673ffffffffffffffffffffffffffffffffffffffff168152602001908152602001600020600085815260200190815260200160002060000160006101000a81548160ff021916908315150217905550611c7d565b8080600190039150508060056000858152602001908152602001600020600901819055506000600660003373ffffffffffffffffffffffffffffffffffffffff1673ffffffffffffffffffffffffffffffffffffffff168152602001908152602001600020600085815260200190815260200160002060000160006101000a81548160ff0219169083151502179055505b505050565b6005602052806000526040600020600091509050806000015490806001018054600181600116156101000203166002900480601f016020809104026020016040519081016040528092919081815260200182805460018160011615610100020316600290048015611d345780601f10611d0957610100808354040283529160200191611d34565b820191906000526020600020905b815481529060010190602001808311611d1757829003601f168201915b505050505090806002015490806003018054600181600116156101000203166002900480601f016020809104026020016040519081016040528092919081815260200182805460018160011615610100020316600290048015611dd85780601f10611dad57610100808354040283529160200191611dd8565b820191906000526020600020905b815481529060010190602001808311611dbb57829003601f168201915b505050505090806004018054600181600116156101000203166002900480601f016020809104026020016040519081016040528092919081815260200182805460018160011615610100020316600290048015611e765780601f10611e4b57610100808354040283529160200191611e76565b820191906000526020600020905b815481529060010190602001808311611e5957829003601f168201915b505050505090806005018054600181600116156101000203166002900480601f016020809104026020016040519081016040528092919081815260200182805460018160011615610100020316600290048015611f145780601f10611ee957610100808354040283529160200191611f14565b820191906000526020600020905b815481529060010190602001808311611ef757829003601f168201915b505050505090806006018054600181600116156101000203166002900480601f016020809104026020016040519081016040528092919081815260200182805460018160011615610100020316600290048015611fb25780601f10611f8757610100808354040283529160200191611fb2565b820191906000526020600020905b815481529060010190602001808311611f9557829003601f168201915b5050505050908060070154908060080160009054906101000a900473ffffffffffffffffffffffffffffffffffffffff1690806009015490508a565b600160009054906101000a900473ffffffffffffffffffffffffffffffffffffffff1673ffffffffffffffffffffffffffffffffffffffff163373ffffffffffffffffffffffffffffffffffffffff16146120b1576040517f08c379a000000000000000000000000000000000000000000000000000000000815260040180806020018281038252601e8152602001807f4f6e6c79206c696272617269616e2063616e206163636573732074686973000081525060200191505060405180910390fd5b600073ffffffffffffffffffffffffffffffffffffffff163373ffffffffffffffffffffffffffffffffffffffff1614156120eb57600080fd5b60006002541180156120ff57506002548111155b612171576040517f08c379a00000000000000000000000000000000000000000000000000000000081526004018080602001828103825260118152602001807f556e61626c6520746f2044656c6574652100000000000000000000000000000081525060200191505060405180910390fd5b600254811461277a576040518061010001604052808281526020016004600060025481526020019081526020016000206001018054600181600116156101000203166002900480601f0160208091040260200160405190810160405280929190818152602001828054600181600116156101000203166002900480156122385780601f1061220d57610100808354040283529160200191612238565b820191906000526020600020905b81548152906001019060200180831161221b57829003601f168201915b505050505081526020016004600060025481526020019081526020016000206002015481526020016004600060025481526020019081526020016000206003018054600181600116156101000203166002900480601f01602080910402602001604051908101604052809291908181526020018280546001816001161561010002031660029004801561230c5780601f106122e15761010080835404028352916020019161230c565b820191906000526020600020905b8154815290600101906020018083116122ef57829003601f168201915b505050505081526020016004600060025481526020019081526020016000206004018054600181600116156101000203166002900480601f0160208091040260200160405190810160405280929190818152602001828054600181600116156101000203166002900480156123c25780601f10612397576101008083540402835291602001916123c2565b820191906000526020600020905b8154815290600101906020018083116123a557829003601f168201915b505050505081526020016004600060025481526020019081526020016000206005018054600181600116156101000203166002900480601f0160208091040260200160405190810160405280929190818152602001828054600181600116156101000203166002900480156124785780601f1061244d57610100808354040283529160200191612478565b820191906000526020600020905b81548152906001019060200180831161245b57829003601f168201915b5050505050815260200160046000600254815260200190815260200160002060060154815260200160046000600254815260200190815260200160002060070160009054906101000a900473ffffffffffffffffffffffffffffffffffffffff1673ffffffffffffffffffffffffffffffffffffffff168152506004600083815260200190815260200160002060008201518160000155602082015181600101908051906020019061252b9291906135a8565b506040820151816002015560608201518160030190805190602001906125529291906135a8565b50608082015181600401908051906020019061256f9291906135a8565b5060a082015181600501908051906020019061258c9291906135a8565b5060c0820151816006015560e08201518160070160006101000a81548173ffffffffffffffffffffffffffffffffffffffff021916908373ffffffffffffffffffffffffffffffffffffffff160217905550905050604051806101000160405280600081526020016040518060200160405280600081525081526020016000815260200160405180602001604052806000815250815260200160405180602001604052806000815250815260200160405180602001604052806000815250815260200160008152602001600073ffffffffffffffffffffffffffffffffffffffff168152506004600060025481526020019081526020016000206000820151816000015560208201518160010190805190602001906126ac9291906135a8565b506040820151816002015560608201518160030190805190602001906126d39291906135a8565b5060808201518160040190805190602001906126f09291906135a8565b5060a082015181600501908051906020019061270d9291906135a8565b5060c0820151816006015560e08201518160070160006101000a81548173ffffffffffffffffffffffffffffffffffffffff021916908373ffffffffffffffffffffffffffffffffffffffff1602179055509050506002600081548092919060019003919050555061290d565b604051806101000160405280600081526020016040518060200160405280600081525081526020016000815260200160405180602001604052806000815250815260200160405180602001604052806000815250815260200160405180602001604052806000815250815260200160008152602001600073ffffffffffffffffffffffffffffffffffffffff16815250600460008381526020019081526020016000206000820151816000015560208201518160010190805190602001906128439291906135a8565b5060408201518160020155606082015181600301908051906020019061286a9291906135a8565b5060808201518160040190805190602001906128879291906135a8565b5060a08201518160050190805190602001906128a49291906135a8565b5060c0820151816006015560e08201518160070160006101000a81548173ffffffffffffffffffffffffffffffffffffffff021916908373ffffffffffffffffffffffffffffffffffffffff160217905550905050600260008154809291906001900391905055505b50565b6004602052806000526040600020600091509050806000015490806001018054600181600116156101000203166002900480601f0160208091040260200160405190810160405280929190818152602001828054600181600116156101000203166002900480156129c25780601f10612997576101008083540402835291602001916129c2565b820191906000526020600020905b8154815290600101906020018083116129a557829003601f168201915b505050505090806002015490806003018054600181600116156101000203166002900480601f016020809104026020016040519081016040528092919081815260200182805460018160011615610100020316600290048015612a665780601f10612a3b57610100808354040283529160200191612a66565b820191906000526020600020905b815481529060010190602001808311612a4957829003601f168201915b505050505090806004018054600181600116156101000203166002900480601f016020809104026020016040519081016040528092919081815260200182805460018160011615610100020316600290048015612b045780601f10612ad957610100808354040283529160200191612b04565b820191906000526020600020905b815481529060010190602001808311612ae757829003601f168201915b505050505090806005018054600181600116156101000203166002900480601f016020809104026020016040519081016040528092919081815260200182805460018160011615610100020316600290048015612ba25780601f10612b7757610100808354040283529160200191612ba2565b820191906000526020600020905b815481529060010190602001808311612b8557829003601f168201915b5050505050908060060154908060070160009054906101000a900473ffffffffffffffffffffffffffffffffffffffff16905088565b600160009054906101000a900473ffffffffffffffffffffffffffffffffffffffff1681565b600160009054906101000a900473ffffffffffffffffffffffffffffffffffffffff1673ffffffffffffffffffffffffffffffffffffffff163373ffffffffffffffffffffffffffffffffffffffff1614612cc1576040517f08c379a000000000000000000000000000000000000000000000000000000000815260040180806020018281038252601e8152602001807f4f6e6c79206c696272617269616e2063616e206163636573732074686973000081525060200191505060405180910390fd5b6000855111612ccf57600080fd5b6000835111612cdd57600080fd5b6000825111612ceb57600080fd5b6000815111612cf957600080fd5b600073ffffffffffffffffffffffffffffffffffffffff163373ffffffffffffffffffffffffffffffffffffffff161415612d3357600080fd5b60008411612d4057600080fd5b60026000815480929190600101919050555060405180610100016040528060025481526020018681526020018581526020018481526020018381526020018281526020014281526020013373ffffffffffffffffffffffffffffffffffffffff16815250600460006002548152602001908152602001600020600082015181600001556020820151816001019080519060200190612ddf9291906135a8565b50604082015181600201556060820151816003019080519060200190612e069291906135a8565b506080820151816004019080519060200190612e239291906135a8565b5060a0820151816005019080519060200190612e409291906135a8565b5060c0820151816006015560e08201518160070160006101000a81548173ffffffffffffffffffffffffffffffffffffffff021916908373ffffffffffffffffffffffffffffffffffffffff1602179055509050507fd582426e2bf25e48534d1d6183ac44de3ff728043911d21290943b4d98746a416002548686868686423360405180898152602001806020018881526020018060200180602001806020018781526020018673ffffffffffffffffffffffffffffffffffffffff1673ffffffffffffffffffffffffffffffffffffffff16815260200185810385528c818151815260200191508051906020019080838360005b83811015612f50578082015181840152602081019050612f35565b50505050905090810190601f168015612f7d5780820380516001836020036101000a031916815260200191505b5085810384528a818151815260200191508051906020019080838360005b83811015612fb6578082015181840152602081019050612f9b565b50505050905090810190601f168015612fe35780820380516001836020036101000a031916815260200191505b50858103835289818151815260200191508051906020019080838360005b8381101561301c578082015181840152602081019050613001565b50505050905090810190601f1680156130495780820380516001836020036101000a031916815260200191505b50858103825288818151815260200191508051906020019080838360005b83811015613082578082015181840152602081019050613067565b50505050905090810190601f1680156130af5780820380516001836020036101000a031916815260200191505b509c5050505050505050505050505060405180910390a15050505050565b60008651116130db57600080fd5b60008351116130e957600080fd5b60008251116130f757600080fd5b600081511161310557600080fd5b6000851161311257600080fd5b600073ffffffffffffffffffffffffffffffffffffffff163373ffffffffffffffffffffffffffffffffffffffff16141561314c57600080fd5b60036000815480929190600101919050555060405180610140016040528060035481526020018781526020018681526020018581526020018481526020018381526020018281526020014281526020013373ffffffffffffffffffffffffffffffffffffffff16815260200160008152506005600060035481526020019081526020016000206000820151816000015560208201518160010190805190602001906131f89291906135a8565b5060408201518160020155606082015181600301908051906020019061321f9291906135a8565b50608082015181600401908051906020019061323c9291906135a8565b5060a08201518160050190805190602001906132599291906135a8565b5060c08201518160060190805190602001906132769291906135a8565b5060e082015181600701556101008201518160080160006101000a81548173ffffffffffffffffffffffffffffffffffffffff021916908373ffffffffffffffffffffffffffffffffffffffff16021790555061012082015181600901559050507fb45bad31593e263efbbe255e8df56675804be8bc73e5bb78390bd5f8fc2acd096003548787878787874233604051808a815260200180602001898152602001806020018060200180602001806020018881526020018773ffffffffffffffffffffffffffffffffffffffff1673ffffffffffffffffffffffffffffffffffffffff16815260200186810386528e818151815260200191508051906020019080838360005b8381101561339757808201518184015260208101905061337c565b50505050905090810190601f1680156133c45780820380516001836020036101000a031916815260200191505b5086810385528c818151815260200191508051906020019080838360005b838110156133fd5780820151818401526020810190506133e2565b50505050905090810190601f16801561342a5780820380516001836020036101000a031916815260200191505b5086810384528b818151815260200191508051906020019080838360005b83811015613463578082015181840152602081019050613448565b50505050905090810190601f1680156134905780820380516001836020036101000a031916815260200191505b5086810383528a818151815260200191508051906020019080838360005b838110156134c95780820151818401526020810190506134ae565b50505050905090810190601f1680156134f65780820380516001836020036101000a031916815260200191505b50868103825289818151815260200191508051906020019080838360005b8381101561352f578082015181840152602081019050613514565b50505050905090810190601f16801561355c5780820380516001836020036101000a031916815260200191505b509e50505050505050505050505050505060405180910390a1505050505050565b60035481565b6000809054906101000a900473ffffffffffffffffffffffffffffffffffffffff1681565b828054600181600116156101000203166002900490600052602060002090601f016020900481019282601f106135e957805160ff1916838001178555613617565b82800160010185558215613617579182015b828111156136165782518255916020019190600101906135fb565b5b5090506136249190613628565b5090565b61364a91905b8082111561364657600081600090555060010161362e565b5090565b9056fe4f6e6c79204e6f74652055706c6f616465722063616e206163636573732074686973a265627a7a7231582022d302cad8066c3ca39125fa64a284b537fa68cc25e2006027b26c7a24ff187c64736f6c63430005100032",
  "source": "pragma solidity ^0.5.16;\n\ncontract Library {\n    \n  address public admin;\n  address public librarian;\n  \n  uint256 public BookCount = 0;\n  uint256 public NoteCount = 0;\n  \n  constructor() public {\n      admin = msg.sender;\n      librarian = msg.sender;\n  }\n  \n  struct Book {\n    uint256 book_Id;\n    string book_Hash;\n    uint256 book_Size;\n    string book_Name;\n    string book_Description;\n    string author;\n    uint256 uploadTime;\n    address uploader;\n  }\n  mapping(uint256 => Book) public books;\n\n  struct Note {\n    uint256 note_Id;\n    string note_Hash;\n    uint256 note_Size;\n    string stream;\n    string subjectcode;\n    string teacher;\n    string date;\n    uint256 uploadTime;\n    address uploader;\n    uint reports;\n  }\n    \n  mapping(uint256 => Note) public notes;\n    \n  struct Reporter{\n        bool reported;\n    }\n  \n  mapping(address => mapping(uint =>  Reporter)) public reporters;\n\n  event BookUploaded(uint256 book_Id,string book_Hash,uint256 book_Size,string book_Name,string book_Description,string author,uint256 uploadTime,address uploader);\n  event NoteUploaded(uint256 note_Id,string note_Hash,uint256 note_Size,string stream,string subjectcode,string teacher,string date,uint256 uploadTime,address uploader);\n    \n  \n\n  modifier onlyadmin(){\n        require(msg.sender==admin,\"Only Admin can access this\");\n        _;\n    }\n    \n  modifier onlylibrarian(){\n        require(msg.sender==librarian,\"Only librarian can access this\");\n        _;\n    }\n    \n  modifier onlyUploaderorLibrarian(uint256 _index){\n        require(msg.sender==notes[_index].uploader || msg.sender==librarian,\"Only Note Uploader can access this\");\n        _;\n    }\n    \n  modifier notuploader(uint256 _index){\n        require(msg.sender!=notes[_index].uploader,\"Uploader can't report notes\");\n        _;\n    }\n\n  function changelibrarian(address _librarian) public onlyadmin() {\n        require(msg.sender != address(0));\n        librarian = _librarian;\n    }\n    \n    \n  function deletebook(uint index) public onlylibrarian(){\n      require(msg.sender != address(0));\n      require(BookCount > 0 && index <= BookCount, \"Unable to Delete!\");\n      if(index != BookCount){\n        books[index]= Book(index,books[BookCount].book_Hash,books[BookCount].book_Size,books[BookCount].book_Name,books[BookCount].book_Description,books[BookCount].author,books[BookCount].uploadTime,books[BookCount].uploader);\n        books[BookCount] = Book(0, \"\", 0, \"\", \"\", \"\", 0, address(0));\n        BookCount --;}\n      else\n      {\n        books[index] = Book(0, \"\", 0, \"\", \"\", \"\", 0, address(0));\n        BookCount--;\n      }\n    }\n    \n  function uploadBook(string memory _book_Hash,uint256 _book_Size,string memory _book_Name,string memory _book_Description,string memory _author) public onlylibrarian() {\n    \n    require(bytes(_book_Hash).length > 0);\n    require(bytes(_book_Name).length > 0);\n    require(bytes(_book_Description).length > 0);\n    require(bytes(_author).length > 0);\n    require(msg.sender != address(0));\n    require(_book_Size > 0);\n\n    BookCount++;\n\n    books[BookCount] = Book(BookCount,_book_Hash,_book_Size,_book_Name,_book_Description,_author,now,msg.sender);\n\n    emit BookUploaded(BookCount,_book_Hash,_book_Size,_book_Name,_book_Description,_author,now,msg.sender);\n  }\n  \n  function uploadNote(string memory _note_Hash,uint256 _note_Size,string memory _stream,string memory _subjectcode,string memory _teacher,string memory _date) public {\n    \n    require(bytes(_note_Hash).length > 0);\n    require(bytes(_subjectcode).length > 0);\n    require(bytes(_teacher).length > 0);\n    require(bytes(_date).length > 0);\n    require(_note_Size > 0);\n    require(msg.sender != address(0));\n    \n\n    NoteCount++;\n\n    notes[NoteCount] = Note(NoteCount,_note_Hash,_note_Size,_stream,_subjectcode,_teacher,_date,now,msg.sender,0);\n    emit NoteUploaded(NoteCount,_note_Hash,_note_Size,_stream,_subjectcode,_teacher,_date,now,msg.sender);\n    }\n    \n  function deletenote(uint index) public onlyUploaderorLibrarian(index){\n        require(msg.sender != address(0));\n        require(NoteCount > 0 && index <= NoteCount, \"Unable to Delete!\");\n        if(index != NoteCount){\n        notes[index]= Note(index,notes[NoteCount].note_Hash,notes[NoteCount].note_Size,notes[NoteCount].stream,notes[NoteCount].subjectcode,notes[NoteCount].teacher,notes[NoteCount].date,notes[NoteCount].uploadTime,notes[NoteCount].uploader,0);\n        notes[NoteCount] = Note(0, \"\", 0, \"\", \"\", \"\", \"\", 0, address(0), 0);\n        NoteCount --;}\n        else\n        {\n            notes[index] = Note(0, \"\", 0, \"\", \"\", \"\", \"\", 0, address(0), 0);\n            NoteCount--;\n        }\n    }\n  function reportnote(uint index) public notuploader(index){\n    require(msg.sender != address(0));\n    uint before = notes[index].reports;\n    // require(!reporters[msg.sender].reported);\n    if(reporters[msg.sender][index].reported==false){\n\n    before++;\n    notes[index].reports = before;\n    reporters[msg.sender][index].reported=true;\n    }\n    else{\n    before--;\n    notes[index].reports = before;\n    reporters[msg.sender][index].reported=false;\n    }\n  }\n}\n  ",
  "sourcePath": "C:\\Users\\Rachit\\Downloads\\EtherLink-Major\\src\\contracts\\Library.sol",
  "compiler": {
    "name": "solc",
    "version": "0.5.16+commit.9c3226ce.Emscripten.clang"
  },
  "schemaVersion": "3.4.16",
  "updatedAt": "2025-05-07T03:08:08.824Z",
  "networkType": "ethereum",
  "devdoc": {
    "methods": {}
  },
  "userdoc": {
    "methods": {}
  }
}